{"address":"0xfa23217D680da5d755EBf601700800da809008B3","bytecode":"0x6080604052346200002657620000146200005c565b6040516128c76200008182396128c790f35b600080fd5b6200003b6200003b6200003b9290565b90565b906200003b6200005262000058926200003b565b6200003b565b9055565b6200007e620000766200007060016200002b565b6200002b565b60036200003e565b56fe60806040526004361015610023575b361561001957600080fd5b610021611c3f565b005b60003560e01c806223de291461018257806301ffc9a71461017d578063150b7a02146101785780631626ba7e146101735780631692d4ef1461016e5780631db6f9b6146101695780632d9ad53d14610164578063468721a71461015f5780635624b25b1461015a5780635691126814610155578063610b592514610150578063aef8c46e1461014b578063b4faba0914610146578063bc197c8114610141578063be91404f1461013c578063c2ded10b14610137578063cc2f845214610132578063d087d2881461012d578063e009cfde14610128578063e4d52aa714610123578063f23a6e611461011e5763ffa1ad740361000e57610c2b565b610bac565b610b30565b610ae6565b610aa8565b610a79565b6109ba565b610959565b6108ea565b61084c565b6107eb565b6107b1565b61079a565b610709565b61065f565b610515565b6104e5565b610418565b6103c6565b610356565b6102d9565b610283565b6001600160a01b031690565b90565b6001600160a01b0381165b036101a857565b600080fd5b905035906101ba82610196565b565b806101a1565b905035906101ba826101bc565b909182601f830112156101a85781359167ffffffffffffffff83116101a85760200192600183028401116101a857565b60c0818303126101a85761021382826101ad565b9261022183602084016101ad565b9261022f81604085016101ad565b9261023d82606083016101c2565b92608082013567ffffffffffffffff81116101a8578361025e9184016101cf565b92909360a082013567ffffffffffffffff81116101a85761027f92016101cf565b9091565b346101a8576102933660046101ff565b505050505050505061002160405190565b0390f35b6001600160e01b031981166101a1565b905035906101ba826102a8565b906020828203126101a857610193916102b8565b346101a8576102a46102f46102ef3660046102c5565b610c46565b60405191829182901515815260200190565b906080828203126101a85761031b81836101ad565b9261032982602085016101ad565b9261033783604083016101c2565b92606082013567ffffffffffffffff81116101a85761027f92016101cf565b346101a8576102a461037561036c366004610306565b93929092610cbf565b604051918291826001600160e01b0319909116815260200190565b9190916040818403126101a8576103a783826101c2565b92602082013567ffffffffffffffff81116101a85761027f92016101cf565b346101a8576102a46103756103dc366004610390565b91610cfe565b60009103126101a857565b610193916008021c6001600160a01b031690565b9061019391546103ed565b61019360006002610401565b346101a8576104283660046103e2565b6102a461043361040c565b604051918291826001600160a01b03909116815260200190565b909182601f830112156101a85781359167ffffffffffffffff83116101a85760200192602083028401116101a857565b908160c09103126101a85790565b610100818303126101a857803567ffffffffffffffff81116101a857826104b39183016101cf565b929093602083013567ffffffffffffffff81116101a857826104dc60409461019393870161044d565b9490950161047d565b6104fc6104f336600461048b565b93929092610f66565b604051005b906020828203126101a857610193916101ad565b346101a8576102a46102f461052b366004610501565b6110db565b634e487b7160e01b600052604160045260246000fd5b90601f01601f1916810190811067ffffffffffffffff82111761056857604052565b610530565b906101ba61057a60405190565b9283610546565b67ffffffffffffffff811161056857602090601f01601f19160190565b0190565b90826000939282370152565b909291926105c36105be82610581565b61056d565b93818552818301116101a8576101ba9160208501906105a2565b9080601f830112156101a857816020610193933591016105ae565b600211156101a857565b905035906101ba826105f8565b6080818303126101a85761062382826101ad565b9261063183602084016101c2565b9260408301359067ffffffffffffffff82116101a8576060610658826101939487016105dd565b9401610602565b346101a8576102a46102f461067536600461060f565b92919091611180565b91906040838203126101a85761019390602061069a82866101c2565b94016101c2565b60005b8381106106b45750506000910152565b81810151838201526020016106a4565b6106e56106ee60209361059e936106d9815190565b80835293849260200190565b958691016106a1565b601f01601f191690565b6020808252610193929101906106c4565b346101a8576102a461072561071f36600461067e565b90611221565b604051918291826106f8565b908160a09103126101a85790565b919091610100818403126101a857803567ffffffffffffffff81116101a8578361076a9183016101cf565b92909360208301359067ffffffffffffffff82116101a857604061079382610193948701610731565b940161047d565b6104fc6107a836600461073f565b92919091611340565b346101a8576104fc6107c4366004610501565b6115ff565b610193916008021c81565b9061019391546107c9565b610193600060036107d4565b346101a8576107fb3660046103e2565b6102a46108066107df565b6040519182918290815260200190565b9190916040818403126101a85761082d83826101ad565b92602082013567ffffffffffffffff81116101a85761019392016105dd565b346101a85761085c366004610816565b90611608565b9160a0838303126101a85761087782846101ad565b9261088583602083016101ad565b92604082013567ffffffffffffffff81116101a857816108a691840161044d565b929093606082013567ffffffffffffffff81116101a857836108c991840161044d565b929093608082013567ffffffffffffffff81116101a85761027f92016101cf565b346101a8576102a4610375610900366004610862565b9695909594919493929361162b565b90916040828403126101a857813567ffffffffffffffff81116101a857836109389184016101cf565b929093602082013567ffffffffffffffff81116101a85761027f920161044d565b6104fc61096736600461090f565b92919091611661565b90916040828403126101a857813567ffffffffffffffff81116101a857836109999184016101cf565b929093602082013567ffffffffffffffff81116101a8576101939201610731565b6102a46102f46109cb366004610970565b916116c7565b91906040838203126101a85761019390602061069a82866101ad565b90610a0d610a066109fc845190565b8084529260200190565b9260200190565b9060005b818110610a1e5750505090565b909192610a44610a3d60019286516001600160a01b0316815260200190565b9460200190565b929101610a11565b92916020610a696101ba93604087019087820360008901526109ed565b9401906001600160a01b03169052565b346101a857610a92610a8c3660046109d1565b906117dd565b906102a4610a9f60405190565b92839283610a4c565b346101a857610ab83660046103e2565b6102a46108066119d2565b91906040838203126101a857610193906020610adf82866101ad565b94016101ad565b346101a8576104fc610af9366004610ac3565b90611ae4565b906080828203126101a857610b1481836101ad565b92610b2282602085016101c2565b9261033783604083016101ad565b346101a8576104fc610b43366004610aff565b93929092611b76565b91909160a0818403126101a857610b6383826101ad565b92610b7181602084016101ad565b92610b7f82604085016101c2565b92610b8d83606083016101c2565b92608082013567ffffffffffffffff81116101a85761027f92016101cf565b346101a8576102a4610375610bc2366004610b4c565b94939093929192611c23565b90610bdb6105be83610581565b918252565b610bea6005610bce565b7f312e302e30000000000000000000000000000000000000000000000000000000602082015290565b610193610be0565b610193610c13565b610193610c1b565b346101a857610c3b3660046103e2565b6102a4610725610c23565b630271189760e51b6001600160e01b0319821614908115610c84575b8115610c6c575090565b6301ffc9a760e01b91506001600160e01b0319161490565b6001600160e01b03198116630a85bd0160e11b149150610c62565b610cb2610cac6101939290565b60e01b90565b6001600160e01b03191690565b5050505050610ccc600090565b5061019363150b7a02610c9f565b6101939081565b6101939054610cda565b61019390610187565b6101939054610ceb565b610d1e9290610d0d6003610ce1565b91610d186002610cf4565b93611c7b565b15610d3057610193631626ba7e610c9f565b61019363ffffffff610c9f565b3561019381610196565b35610193816101bc565b65ffffffffffff81166101a1565b3561019381610d51565b67ffffffffffffffff81116105685760208091020190565b91909160a0818403126101a857610d9860a061056d565b92610da381836101ad565b8452610db281602084016101c2565b6020850152604082013567ffffffffffffffff81116101a85782610ddd83608093610dfa96016105dd565b6040870152610def8360608301610602565b6060870152016101c2565b6080830152565b929190610e106105be82610d69565b93818552602080860192028101918383116101a85781905b838210610e36575050505050565b813567ffffffffffffffff81116101a857602091610e578784938701610d81565b815201910190610e28565b610193913691610e01565b15610e7457565b60405162461bcd60e51b815260206004820152601560248201527f467573696f6e3a20696e76616c69642070726f6f6600000000000000000000006044820152606490fd5b15610ec057565b60405162461bcd60e51b815260206004820152601c60248201527f467573696f6e3a20696e73756666696369656e742062616c616e6365000000006044820152606490fd5b6101936101936101939265ffffffffffff1690565b15610f2157565b60405162461bcd60e51b815260206004820152601960248201527f467573696f6e3a20646561646c696e65206578636565646564000000000000006044820152606490fd5b9193909293610f73611ca9565b90466000840194610f8386610d3d565b96602086019489610f9387610d47565b99604089019a610fa28c610d47565b9160a08b0197610fb189610d5f565b94610fbc908b610e62565b95610fc696611cf6565b610fd06003610ce1565b90610fdb6002610cf4565b92610fe594611c7b565b610fee90610e6d565b610ff785610d3d565b61100360608601610d47565b61100c91611e45565b61101590610eb9565b61101e90610d5f565b61102790610f05565b42111561103390610f1a565b5a9561103e91610e62565b61104790612030565b61105090610d47565b9261105a90610d47565b9060800161106790610d3d565b9161107190610d3d565b926101ba94612132565b6101876101936101939290565b6101939061107b565b6101936001611088565b610187610193610193926001600160a01b031690565b6101939061109b565b610193906110b1565b906110cd906110ba565b600052602052604060002090565b6110e3611091565b6110fe6001600160a01b0383165b916001600160a01b031690565b1415908161110a575090565b61111f915061111a9060016110c3565b610cf4565b61112f6110f16101876000611088565b141590565b1561113b57565b60405162461bcd60e51b815260206004820152601b60248201527f467573696f6e3a20554e415554484f52495a45445f4d4f44554c4500000000006044820152606490fd5b91610193939161118e600090565b506111b76111a061111a3360016110c3565b6111b06110f16101876000611088565b1415611134565b5a936122f4565b6101936101936101939290565b634e487b7160e01b600052601160045260246000fd5b818102929181159184041417156111f457565b6111cb565b369037565b906101ba61121461120e84610bce565b93610581565b601f1901602084016111f9565b9160209061124061123b61123560206111be565b856111e1565b6111fe565b9061124b60006111be565b848110156112675780860154848202858501015260010161124b565b50935091505090565b610193903690610d81565b903590601e1936829003018212156101a8570180359067ffffffffffffffff82116101a857602001913682900383136101a857565b634e487b7160e01b600052602160045260246000fd5b600211156112d057565b6112b0565b906101ba826112c6565b35610193816105f8565b6101939136916105ae565b156112fb57565b60405162461bcd60e51b815260206004820152601860248201527f467573696f6e3a20657865637574696f6e206661696c656400000000000000006044820152606490fd5b90919261134b611ca9565b46600083019361135a85610d3d565b9560208501938861136a86610d47565b9860408801996113798b610d47565b9160a08a019761138889610d5f565b9461139290611270565b9561139c9661235c565b6113a66003610ce1565b906113b16002610cf4565b926113bb94611c7b565b6113c490610e6d565b6113cd84610d3d565b6113d960608501610d47565b6113e291611e45565b6113eb90610eb9565b6113f490610d5f565b6113fd90610f05565b42111561140990610f1a565b5a9461141481610d3d565b9061142160208201610d47565b9061142f604082018261127b565b929061143d606084016112df565b9260800161144a90610d47565b93611454916112e9565b9061145e946122f4565b611047906112f4565b6101ba90611473612376565b6114a8565b906001600160a01b03905b9181191691161790565b9061149d6101936114a4926110ba565b8254611478565b9055565b6114b26000611088565b6001600160a01b0381166001600160a01b0383161480156115e3575b61159e576001906114f56110f16114e861111a86866110c3565b926001600160a01b031690565b0361155957816104337fecdf3a3effea5783a3c4c2140e677577666428d44ed9d474a0b3a4c9943f84409361154a6115549461152f611091565b9061154f61154061111a84846110c3565b61154a86846110c3565b61148d565b6110c3565b0390a1565b60405162461bcd60e51b815260206004820152601560248201527f467573696f6e3a204d4f44554c455f45584953545300000000000000000000006044820152606490fd5b60405162461bcd60e51b815260206004820152601e60248201527f467573696f6e3a20494e56414c49445f4d4f44554c455f4144445245535300006044820152606490fd5b506115ef610187611091565b6001600160a01b038316146114ce565b6101ba90611467565b6000918291602082519201905af46000523d6020523d600060403e60403d016000fd5b505050505050505061163b600090565b5061019363bc197c81610c9f565b6116566101936101939290565b65ffffffffffff1690565b916116bd6116b86116c2946101ba96946116ae61167c611ca9565b6116a860004661168b82611088565b906116968c8c610e62565b946116a0846111be565b948594611649565b95611cf6565b610d0d6003610ce1565b610e6d565b610e62565b612030565b91611729611763926117226116b8610193966116e1600090565b506116ea611ca9565b936116ae46956000966116fc88611088565b916117068b611270565b926117108a6111be565b92839261171c8c611649565b9561235c565b8201610d3d565b61173560208301610d47565b611742604084018461127b565b61175d6080611756606088999599016112df565b9601610d47565b956112e9565b916122f4565b90610bdb6105be83610d69565b906101ba61121461178684611769565b93610d69565b634e487b7160e01b600052603260045260246000fd5b906117ab825190565b8110156117bc576020809102010190565b61178c565b60001981146111f45760010190565b919082039182116111f457565b90916117e7611091565b6001600160a01b0381166001600160a01b0384161415806119bc575b6119775760009061181460006111be565b85146119325761111a9361182786611776565b91829661183460006111be565b946118436001988995866110c3565b975b61189a575b50506001600160a01b03166001600160a01b03861603611868575052565b61189691945061188361187d611889926111be565b846117d0565b856117a2565b516001600160a01b031690565b9252565b90919294966118ab61018783611088565b6001600160a01b038216141580611916575b8061190d575b1561190457906118fe6118f861111a846118f28a9897966118e48e8c6117a2565b906001600160a01b03169052565b876110c3565b986117c1565b95611845565b9694929161184a565b508288106118c3565b506001600160a01b0384166001600160a01b03821614156118bd565b60405162461bcd60e51b815260206004820152601960248201527f467573696f6e3a20494e56414c49445f504147455f53495a45000000000000006044820152606490fd5b60405162461bcd60e51b815260206004820152601c60248201527f467573696f6e3a20494e56414c49445f53544152545f4d4f44554c45000000006044820152606490fd5b506119cd6119c9846110db565b1590565b611803565b6101936004610ce1565b906101ba916119e9612376565b6119f36000611088565b916001600160a01b0383166001600160a01b038216148015611ac8575b61159e57600191611a2461111a82856110c3565b611a366001600160a01b0384166110f1565b03611a83577faab4fa2b463f581b2b32cb3b7e3b704b9ce37cc209b5fb4d77e593ace40542769361154a838561154f6104339561154a611a7c61111a866115549c6110c3565b91846110c3565b60405162461bcd60e51b815260206004820152601660248201527f467573696f6e3a20494e56414c49445f4d4f44554c45000000000000000000006044820152606490fd5b50611ad4610187611091565b6001600160a01b03821614611a10565b906101ba916119dc565b15611af557565b60405162461bcd60e51b815260206004820152601b60248201527f467573696f6e3a20616c726561647920696e697469616c697a656400000000006044820152606490fd5b9060001990611483565b90611b526101936114a49290565b8254611b3a565b6001600160a01b0390911681526040810192916101ba9160200152565b91611c087f6a1a2249c74c6602d92273c1b532a3b45cdc3e69299742bd0d941f1ec1575dc595611c0e9395611bc4611bae6002610cf4565b611bbe6110f16101876000611088565b14611aee565b611bed611bd16003610ce1565b611bbe611be9610193611be460006111be565b6111be565b9190565b611bf886600261148d565b611c03876003611b44565b6112e9565b906124b3565b611554611c1a60405190565b92839283611b59565b505050505050611c31600090565b5061019363f23a6e61610c9f565b611c48336110ba565b7f2bee3931a0bb0eccf837f383a9616f04ff50f842ab65661d06c3bc24f85e6410611c7260405190565b348152602090a2565b916101939493611c9391611c8d600090565b50612548565b91612675565b90611b526101936114a4926111be565b611cb36004610ce1565b610193600182016004611c99565b61059e611cd992602092611cd3815190565b94859290565b938491016106a1565b611cf0906101939392611cc1565b90611cc1565b959493929190606096611d0960006111be565b975b611d16610193835190565b891015611d7257611d59611d65611d6c92611d418b8b8b8f8b8b611d3b8f938d6117a2565b5161277d565b90611d4b60405190565b938492602084019283611ce2565b90810382520382610546565b9860010190565b97611d0b565b975050505050505050611d8d611d86825190565b9160200190565b2090565b60ff81166101a1565b905051906101ba82611d91565b906020828203126101a85761019391611d9a565b6040513d6000823e3d90fd5b905051906101ba826101bc565b906020828203126101a85761019391611dc7565b611df56101936101939290565b60ff1690565b60ff908116911690039060ff82116111f457565b60ff16604d81116111f457600a0a90565b634e487b7160e01b600052601260045260246000fd5b8115611e40570490565b611e20565b90611e536101876000611088565b6001600160a01b03831614611fc457611e73611e6e836110ba565b6110ba565b916020611e7f60405190565b63313ce56760e01b815293849060049082905afa908115611f8557611ef093600092611f8a575b50611eb5611e6e6020926110ba565b611ebe306110ba565b90611ec860405190565b958692839182916370a0823160e01b8352600483016001600160a01b03909116815260200190565b03915afa928315611f8557600093611f3e575b50610193611f2f92611f29611f24611be994611f1f6012611de8565b611dfb565b611e0f565b90611e36565b10611f3957600190565b600090565b611be9919350611f2f92611f29611f24611f726101939460203d602011611f7e575b611f6a8183610546565b810190611dd4565b96945050509250611f03565b503d611f60565b611dbb565b6020919250611e6e611fb4611eb592843d8611611fbd575b611fac8183610546565b810190611da7565b93925050611ea6565b503d611fa2565b9050611f2f611be9611fd5306110ba565b319290565b61019390516112d5565b15611feb57565b60405162461bcd60e51b815260206004820152601e60248201527f467573696f6e3a20626174636820657865637574696f6e206661696c656400006044820152606490fd5b90600061203d60006111be565b612048610193855190565b8110156120d757806120cc6120c7612076856120676120d2968a6117a2565b5101516001600160a01b031690565b8761208c602061208687846117a2565b51015190565b604061209887846117a2565b510151906120c16080612086896120bb60606120b4838a6117a2565b5101611fda565b966117a2565b936122f4565b611fe4565b60010190565b61203d565b50509050565b919082018092116111f457565b3d15612104576120f93d610bce565b903d6000602084013e565b606090565b8015156101a1565b905051906101ba82612109565b906020828203126101a85761019391612111565b61214e92612144612149925a906117d0565b6120dd565b6111e1565b9060009161215e61018784611088565b6001600160a01b038516146122cf57612179611e6e856110ba565b91602061218560405190565b63313ce56760e01b815293849060049082905afa948515611f85576121fd6121c8869594611f29611f2461221d9a89986000916122b0575b50611f1f6012611de8565b926121ee6121d560405190565b63a9059cbb60e01b602082015294859260248401611b59565b60208201810382520383610546565b82602083519301915af1906122106120ea565b9082612268575b50501590565b61222357565b60405162461bcd60e51b815260206004820152601b60248201527f467573696f6e3a20666565207472616e73666572206661696c656400000000006044820152606490fd5b90915061227f611be9612279845190565b926111be565b14908115612290575b503880612217565b6122aa9150602061229f825190565b81830101910161211e565b38612288565b6122c9915060203d602011611fbd57611fac8183610546565b386121bd565b61221d93509082916122e060405190565b90818003925af16122ef6120ea565b501590565b9394936000938493929061231161230b60016112d5565b916112d5565b14841461234257506020825192019086f491612339611be96101935a935b611f29603f6111be565b1061234057565bfe5b6020835193019187f191612339611be96101935a9361232f565b61236b9695949392919061277d565b611d8d611d86825190565b612382610187306110ba565b330361238a57565b60405162461bcd60e51b815260206004820152601560248201527f4f4e4c595f43414c4c41424c455f42595f53454c4600000000000000000000006044820152606490fd5b156123d657565b60405162461bcd60e51b815260206004820152601b60248201527f4d6f64756c657320616c726561647920696e697469616c697a656400000000006044820152606490fd5b1561242257565b60405162461bcd60e51b815260206004820152600e60248201527f496e76616c6964204d6f64756c650000000000000000000000000000000000006044820152606490fd5b1561246e57565b60405162461bcd60e51b815260206004820152601360248201527f4d6f64756c65207365747570206661696c6564000000000000000000000000006044820152606490fd5b906001916125036124c2611091565b6101876124d261111a83886110c3565b916124f96124e06000611088565b936124f36001600160a01b0386166110f1565b146123cf565b61154a81886110c3565b6001600160a01b0382160361251757505050565b6101ba926125439261253061252b846127e6565b61241b565b61253a60006111be565b600019936122f4565b612467565b919061256561255f61255a60216111be565b611776565b9361282b565b9061257060006111be565b602061257b816111be565b8210156125d2578110156117bc576125cd906120cc6125c07fff0000000000000000000000000000000000000000000000000000000000000086841a60f81b16612869565b6125ca83896117a2565b52565b612570565b505061019391509291926125ca6125e960206111be565b846117a2565b91906106ee816126068161059e9560209181520190565b80956105a2565b9061261c610a066109fc845190565b9060005b81811061262d5750505090565b909192612643610a3d6001928651815260200190565b929101612620565b91610193939161266791604085019185830360008701526125ef565b91602081840391015261260d565b60209291612691611e6e6126b59661268b600090565b506110ba565b9161269b60405190565b95869485938493633a94343960e21b85526004850161264b565b03915afa908115611f85576000916126cb575090565b610193915060203d6020116126ed575b6126e58183610546565b81019061211e565b503d6126db565b610193906112d5565b98969492919b9a999795939b6101608a019160008b01612724916001600160a01b03169052565b60208a015288810360408a015261273a916106c4565b60ff9a909a166060880152608087015260a08601526001600160a01b031660c085015260e084015261010083015265ffffffffffff166101208201526101400152565b909561019395611d599395612790606090565b5083516001600160a01b0316956127a8602086015190565b9760408601519a6127ce60806127c86127c360608b01611fda565b6126f4565b98015190565b966127d860405190565b9c8d9b60208d019b8c6126fd565b3b6127f4611be960006111be565b1190565b9061059e610bdb6020937f19457468657265756d205369676e6564204d6573736167653a0a3332000000008152601c0190565b61236b61283760405190565b8092611d596020830191826127f8565b610193906111be565b61019390612864611be96101939460ff1690565b901c90565b611be46128816101939261287b600090565b50612847565b61288b60f8611de8565b9061285056fea2646970667358221220c253f285f65c7e3ee8518f5424e7d87ea9dcc6824c3df2e2eb62034e0d16d0ed64736f6c63430008180033","abi":[{"inputs":[],"stateMutability":"nonpayable","type":"constructor"},{"anonymous":false,"inputs":[{"indexed":false,"internalType":"address","name":"module","type":"address"}],"name":"DisabledModule","type":"event"},{"anonymous":false,"inputs":[{"indexed":false,"internalType":"address","name":"module","type":"address"}],"name":"EnabledModule","type":"event"},{"anonymous":false,"inputs":[{"indexed":true,"internalType":"address","name":"sender","type":"address"},{"indexed":false,"internalType":"uint256","name":"value","type":"uint256"}],"name":"FusionReceived","type":"event"},{"anonymous":false,"inputs":[{"indexed":false,"internalType":"address","name":"txVerifier","type":"address"},{"indexed":false,"internalType":"bytes32","name":"txHash","type":"bytes32"}],"name":"SetupFusion","type":"event"},{"inputs":[],"name":"TxHash","outputs":[{"internalType":"bytes32","name":"","type":"bytes32"}],"stateMutability":"view","type":"function"},{"inputs":[],"name":"TxVerifier","outputs":[{"internalType":"address","name":"","type":"address"}],"stateMutability":"view","type":"function"},{"inputs":[],"name":"VERSION","outputs":[{"internalType":"string","name":"","type":"string"}],"stateMutability":"view","type":"function"},{"inputs":[{"internalType":"address","name":"prevModule","type":"address"},{"internalType":"address","name":"module","type":"address"}],"name":"disableModule","outputs":[],"stateMutability":"nonpayable","type":"function"},{"inputs":[{"internalType":"address","name":"module","type":"address"}],"name":"enableModule","outputs":[],"stateMutability":"nonpayable","type":"function"},{"inputs":[{"internalType":"address","name":"to","type":"address"},{"internalType":"uint256","name":"value","type":"uint256"},{"internalType":"bytes","name":"data","type":"bytes"},{"internalType":"enum Enum.Operation","name":"operation","type":"uint8"}],"name":"execTransactionFromModule","outputs":[{"internalType":"bool","name":"success","type":"bool"}],"stateMutability":"nonpayable","type":"function"},{"inputs":[{"internalType":"bytes","name":"_proof","type":"bytes"},{"components":[{"internalType":"address","name":"to","type":"address"},{"internalType":"uint256","name":"value","type":"uint256"},{"internalType":"bytes","name":"data","type":"bytes"},{"internalType":"enum Enum.Operation","name":"operation","type":"uint8"},{"internalType":"uint256","name":"gasLimit","type":"uint256"}],"internalType":"struct Transaction.TransactionData[]","name":"transactions","type":"tuple[]"}],"name":"executeBatchTx","outputs":[],"stateMutability":"payable","type":"function"},{"inputs":[{"internalType":"bytes","name":"_proof","type":"bytes"},{"components":[{"internalType":"address","name":"to","type":"address"},{"internalType":"uint256","name":"value","type":"uint256"},{"internalType":"bytes","name":"data","type":"bytes"},{"internalType":"enum Enum.Operation","name":"operation","type":"uint8"},{"internalType":"uint256","name":"gasLimit","type":"uint256"}],"internalType":"struct Transaction.TransactionData[]","name":"transactions","type":"tuple[]"},{"components":[{"internalType":"address","name":"token","type":"address"},{"internalType":"uint256","name":"gasPrice","type":"uint256"},{"internalType":"uint256","name":"baseGas","type":"uint256"},{"internalType":"uint256","name":"estimatedFees","type":"uint256"},{"internalType":"address","name":"gasRecipient","type":"address"},{"internalType":"uint48","name":"deadline","type":"uint48"}],"internalType":"struct Quote.GasQuote","name":"quote","type":"tuple"}],"name":"executeBatchTxWithProvider","outputs":[],"stateMutability":"payable","type":"function"},{"inputs":[{"internalType":"bytes","name":"_proof","type":"bytes"},{"components":[{"internalType":"address","name":"to","type":"address"},{"internalType":"uint256","name":"value","type":"uint256"},{"internalType":"bytes","name":"data","type":"bytes"},{"internalType":"enum Enum.Operation","name":"operation","type":"uint8"},{"internalType":"uint256","name":"gasLimit","type":"uint256"}],"internalType":"struct Transaction.TransactionData","name":"txData","type":"tuple"}],"name":"executeTx","outputs":[{"internalType":"bool","name":"success","type":"bool"}],"stateMutability":"payable","type":"function"},{"inputs":[{"internalType":"bytes","name":"_proof","type":"bytes"},{"components":[{"internalType":"address","name":"to","type":"address"},{"internalType":"uint256","name":"value","type":"uint256"},{"internalType":"bytes","name":"data","type":"bytes"},{"internalType":"enum Enum.Operation","name":"operation","type":"uint8"},{"internalType":"uint256","name":"gasLimit","type":"uint256"}],"internalType":"struct Transaction.TransactionData","name":"txData","type":"tuple"},{"components":[{"internalType":"address","name":"token","type":"address"},{"internalType":"uint256","name":"gasPrice","type":"uint256"},{"internalType":"uint256","name":"baseGas","type":"uint256"},{"internalType":"uint256","name":"estimatedFees","type":"uint256"},{"internalType":"address","name":"gasRecipient","type":"address"},{"internalType":"uint48","name":"deadline","type":"uint48"}],"internalType":"struct Quote.GasQuote","name":"quote","type":"tuple"}],"name":"executeTxWithProvider","outputs":[],"stateMutability":"payable","type":"function"},{"inputs":[{"internalType":"address","name":"start","type":"address"},{"internalType":"uint256","name":"pageSize","type":"uint256"}],"name":"getModulesPaginated","outputs":[{"internalType":"address[]","name":"array","type":"address[]"},{"internalType":"address","name":"next","type":"address"}],"stateMutability":"view","type":"function"},{"inputs":[],"name":"getNonce","outputs":[{"internalType":"uint256","name":"","type":"uint256"}],"stateMutability":"view","type":"function"},{"inputs":[{"internalType":"uint256","name":"offset","type":"uint256"},{"internalType":"uint256","name":"length","type":"uint256"}],"name":"getStorageAt","outputs":[{"internalType":"bytes","name":"","type":"bytes"}],"stateMutability":"view","type":"function"},{"inputs":[{"internalType":"address","name":"module","type":"address"}],"name":"isModuleEnabled","outputs":[{"internalType":"bool","name":"","type":"bool"}],"stateMutability":"view","type":"function"},{"inputs":[{"internalType":"bytes32","name":"_hash","type":"bytes32"},{"internalType":"bytes","name":"_signature","type":"bytes"}],"name":"isValidSignature","outputs":[{"internalType":"bytes4","name":"magicValue","type":"bytes4"}],"stateMutability":"view","type":"function"},{"inputs":[{"internalType":"address","name":"","type":"address"},{"internalType":"address","name":"","type":"address"},{"internalType":"uint256[]","name":"","type":"uint256[]"},{"internalType":"uint256[]","name":"","type":"uint256[]"},{"internalType":"bytes","name":"","type":"bytes"}],"name":"onERC1155BatchReceived","outputs":[{"internalType":"bytes4","name":"","type":"bytes4"}],"stateMutability":"pure","type":"function"},{"inputs":[{"internalType":"address","name":"","type":"address"},{"internalType":"address","name":"","type":"address"},{"internalType":"uint256","name":"","type":"uint256"},{"internalType":"uint256","name":"","type":"uint256"},{"internalType":"bytes","name":"","type":"bytes"}],"name":"onERC1155Received","outputs":[{"internalType":"bytes4","name":"","type":"bytes4"}],"stateMutability":"pure","type":"function"},{"inputs":[{"internalType":"address","name":"","type":"address"},{"internalType":"address","name":"","type":"address"},{"internalType":"uint256","name":"","type":"uint256"},{"internalType":"bytes","name":"","type":"bytes"}],"name":"onERC721Received","outputs":[{"internalType":"bytes4","name":"","type":"bytes4"}],"stateMutability":"pure","type":"function"},{"inputs":[{"internalType":"address","name":"_txVerifier","type":"address"},{"internalType":"bytes32","name":"_txHash","type":"bytes32"},{"internalType":"address","name":"to","type":"address"},{"internalType":"bytes","name":"data","type":"bytes"}],"name":"setupFusion","outputs":[],"stateMutability":"nonpayable","type":"function"},{"inputs":[{"internalType":"address","name":"targetContract","type":"address"},{"internalType":"bytes","name":"calldataPayload","type":"bytes"}],"name":"simulateAndRevert","outputs":[],"stateMutability":"nonpayable","type":"function"},{"inputs":[{"internalType":"bytes4","name":"interfaceId","type":"bytes4"}],"name":"supportsInterface","outputs":[{"internalType":"bool","name":"","type":"bool"}],"stateMutability":"view","type":"function"},{"inputs":[{"internalType":"address","name":"","type":"address"},{"internalType":"address","name":"","type":"address"},{"internalType":"address","name":"","type":"address"},{"internalType":"uint256","name":"","type":"uint256"},{"internalType":"bytes","name":"","type":"bytes"},{"internalType":"bytes","name":"","type":"bytes"}],"name":"tokensReceived","outputs":[],"stateMutability":"pure","type":"function"},{"stateMutability":"payable","type":"receive"}]}