{"address":"0x160860b934179D2F70da22eF85E20Cb4d0820c31","bytecode":"0x60806040523461001a576040516106d861002082396106d890f35b600080fdfe6080604052600436101561001b575b361561001957600080fd5b005b60003560e01c6334fcd5be0361000e576102ba565b634e487b7160e01b600052604160045260246000fd5b90601f01601f1916810190811067ffffffffffffffff82111761006857604052565b610030565b9061008161007a60405190565b9283610046565b565b67ffffffffffffffff81116100685760208091020190565b6001600160a01b031690565b90565b6001600160a01b0381165b036100bc57565b600080fd5b90503590610081826100aa565b806100b5565b90503590610081826100ce565b67ffffffffffffffff811161006857602090601f01601f19160190565b90826000939282370152565b9092919261011f61011a826100e1565b61006d565b93818552818301116100bc576100819160208501906100fe565b9080601f830112156100bc578160206100a79335910161010a565b9190916060818403126100bc5761016b606061006d565b9261017681836100c1565b845261018581602084016100d4565b6020850152604082013567ffffffffffffffff81116100bc576101a89201610139565b6040830152565b9291906101be61011a82610083565b93818552602080860192028101918383116100bc5781905b8382106101e4575050505050565b813567ffffffffffffffff81116100bc576020916102058784938701610154565b8152019101906101d6565b9080601f830112156100bc578160206100a7933591016101af565b906020828203126100bc57813567ffffffffffffffff81116100bc576100a79201610210565b9061027161026a610260845190565b8084529260200190565b9260200190565b9060005b8181106102825750505090565b9091926102a161029a60019286511515815260200190565b9460200190565b929101610275565b60208082526100a792910190610251565b6102dc6102d06102cb36600461022b565b61051c565b604051918291826102a9565b0390f35b6100a76100a76100a79290565b156102f457565b60405162461bcd60e51b815260206004820152601860248201527f4e6f207472616e73616374696f6e732070726f766964656400000000000000006044820152606490fd5b9061034661011a83610083565b918252565b369037565b9061008161036661036084610339565b93610083565b601f19016020840161034b565b634e487b7160e01b600052603260045260246000fd5b90610392825190565b8110156103a3576020809102010190565b610373565b634e487b7160e01b600052601160045260246000fd5b919082018092116103cb57565b6103a8565b61009b6100a76100a7926001600160a01b031690565b6100a7906103d0565b6100a7906103e6565b156103ff57565b60405162461bcd60e51b8152602060048201526024808201527f496e73756666696369656e742062616c616e636520666f72207472616e7361636044820152633a34b7b760e11b6064820152608490fd5b9061034661011a836100e1565b3d156104775761046c3d610450565b903d6000602084013e565b606090565b9081526001600160a01b03919091166020820152901515604082015260600190565b156104a557565b60405162461bcd60e51b815260206004820152602a60248201527f496e73756666696369656e74204554482073656e7420666f7220616c6c20747260448201527f616e73616374696f6e73000000000000000000000000000000000000000000006064820152608490fd5b6040513d6000823e3d90fd5b90815161053b600091610535610531846102e0565b9190565b116102ed565b610544816102e0565b90610555610550855190565b610350565b9384835b6105646100a7845190565b81101561063b576105758184610389565b519484806020880192610586845190565b61058f916103be565b97610599306103ef565b316105a2855190565b11156105ad906103f8565b818101936105c285516001600160a01b031690565b9051916040015191825192602001915af1906105dc61045d565b50816105e8848b610389565b9015159052516001600160a01b03169061060160405190565b91829161060f91858461047c565b037f5092f07c8e4bddf9343713315b9b57c85c86a54bcf264b1216b598857e7bd72991a1600101610559565b509450509061064a6106529190565b34101561049e565b61065b306103ef565b31610665826102e0565b811161066f575050565b8180809261068461067f336103ef565b6103ef565b828215610699575bf11561069457565b610510565b506108fc61068c56fea2646970667358221220656af9b53019466ba70938a5eb2f9c7ce8d9fc17c82ae1e03b31afe7d6f2257964736f6c63430008180033","abi":[{"anonymous":false,"inputs":[{"indexed":false,"internalType":"uint256","name":"index","type":"uint256"},{"indexed":false,"internalType":"address","name":"to","type":"address"},{"indexed":false,"internalType":"bool","name":"success","type":"bool"}],"name":"TransactionResult","type":"event"},{"inputs":[{"components":[{"internalType":"address","name":"to","type":"address"},{"internalType":"uint256","name":"value","type":"uint256"},{"internalType":"bytes","name":"data","type":"bytes"}],"internalType":"struct OpenBatchExecutorNoFailure.Transaction[]","name":"transactions","type":"tuple[]"}],"name":"executeBatch","outputs":[{"internalType":"bool[]","name":"results","type":"bool[]"}],"stateMutability":"payable","type":"function"},{"stateMutability":"payable","type":"receive"}]}