{"address":"0x28d38B78809520f7a9c78bD4f04426FF07C4C9b2","bytecode":"0x60806040523461001a5760405161098f610020823961098f90f35b600080fdfe608060405260043610156200001357600080fd5b60003560e01c806353e5d93514620000365763d1d34a8a0362000048576200020f565b620000c5565b60009103126200004857565b600080fd5b60005b838110620000615750506000910152565b818101518382015260200162000050565b62000097620000a1602093620000ab936200008b815190565b80835293849260200190565b958691016200004d565b601f01601f191690565b0190565b6020808252620000c29291019062000072565b90565b346200004857620000d83660046200003c565b620000f3620000e662000297565b60405191829182620000af565b0390f35b909182601f83011215620000485781359167ffffffffffffffff8311620000485760200192600183028401116200004857565b6001600160a01b031690565b6001600160a01b0381165b036200004857565b90503590620001588262000136565b565b91906060838203126200004857823567ffffffffffffffff811162000048578162000187918501620000f7565b92909362000199836020830162000149565b92604082013567ffffffffffffffff81116200004857620001bb9201620000f7565b9091565b6200012a620000c2620000c2926001600160a01b031690565b620000c290620001bf565b620000c290620001d8565b620001f990620001e3565b9052565b602081019291620001589190620001ee565b346200004857620000f3620002346200022a3660046200015a565b9392909262000305565b60405191829182620001fd565b634e487b7160e01b600052604160045260246000fd5b90601f01601f1916810190811067ffffffffffffffff8211176200027a57604052565b62000241565b90620001586200028f60405190565b928362000257565b610259620002a86020820162000280565b9080825262000701602083013990565b8062000141565b905035906200015882620002b8565b90916060828403126200004857620000c2620002eb848462000149565b936040620002fd8260208701620002bf565b940162000149565b620003386200032d6200033f92620000c29796959462000323600090565b50810190620002ce565b9391929092620001e3565b92620001e3565b9162000363565b620001f9906001600160a01b031660601b90565b01809262000346565b95949290620003c8949262000376600090565b50604051620003ab81602081016200039e8587836020816200035a620000ab93601496959052565b9081038252038262000257565b620003bf620003b8825190565b9160200190565b2091886200052b565b917f4f51faf6c4561ff95f067657e43439f0f856d97c04d9ec9070a6199ad418e2356200041b620003f985620001e3565b926200040460405190565b918291826001600160a01b03909116815260200190565b0390a2565b156200042857565b60405162461bcd60e51b815260206004820152601f60248201527f53696e676c65746f6e20636f6e7472616374206e6f74206465706c6f796564006044820152606490fd5b620000c2620000c2620000c2926001600160a01b031690565b620000ab620004a1926020926200049b815190565b94859290565b938491016200004d565b620004be620000ab916020949362000486565b918252565b6200012a620000c2620000c29290565b620000c290620004c3565b15620004e657565b60405162461bcd60e51b815260206004820152601360248201527f437265617465322063616c6c206661696c6564000000000000000000000000006044820152606490fd5b95620005f7936200039e620005b0620005fd94989a999795976200054d600090565b50620005636200055d8262000623565b62000420565b6200059662000590610259926200057d6020850162000280565b93808552620007016020860139620001d8565b6200046d565b90620005a160405190565b938492602084019283620004ab565b8051906020016000f597620005c589620001e3565b93600097889788978897620005ef620005e26200012a8b620004d3565b916001600160a01b031690565b1415620004de565b620006bc565b60208151910182885af114620006105750565b80fd5b620000c2620000c2620000c29290565b3b6200063862000634600062000613565b9190565b1190565b90826000939282370152565b9190620000a1816200066281620000ab9560209181520190565b80956200063c565b909391620000c295936200069e620006ae9262000697608086019860008701906001600160a01b03169052565b6020850152565b6001600160a01b03166040830152565b606081850391015262000648565b9193620000c293620006f09295620006d2606090565b5060405163e4d52aa760e01b6020820152968795602487016200066a565b602082018103825203826200025756fe608060405234610028576100196100146100c0565b6101a1565b604051608b6101ce8239608b90f35b600080fd5b634e487b7160e01b600052604160045260246000fd5b90601f01601f191681019081106001600160401b0382111761006457604052565b61002d565b9061007d61007660405190565b9283610043565b565b6001600160a01b031690565b90565b6001600160a01b0381160361002857565b9050519061007d8261008e565b906020828203126100285761008b9161009f565b61008b610259803803806100d381610069565b9283398101906100ac565b61007f61008b61008b9290565b61008b906100de565b156100fb57565b60405162461bcd60e51b815260206004820152602260248201527f496e76616c69642073696e676c65746f6e20616464726573732070726f766964604482015261195960f21b6064820152608490fd5b61008b9061007f906001600160a01b031682565b61008b9061014b565b61008b9061015f565b9061018161008b61019d92610168565b82546001600160a01b0319166001600160a01b03919091161790565b9055565b61007d906101c66101b561007f60006100eb565b6001600160a01b03831614156100f4565b600061017156fe60806040526000805473ffffffffffffffffffffffffffffffffffffffff16903563530ca43760e11b14604c576000808092368280378136915af43d82803e146047573d6000f35b3d6000fd5b60005260206000f3fea264697066735822122080910b9407e55bea2fc5c4480d166cebd732618c84af8d8238f8c4ccc7d9955764736f6c63430008180033a2646970667358221220a7e4947857ef61a221b7336525f9f87bd79af5d7c03a1e1974802101603f37e364736f6c63430008180033","abi":[{"anonymous":false,"inputs":[{"indexed":true,"internalType":"contract FusionProxy","name":"proxy","type":"address"},{"indexed":false,"internalType":"address","name":"singleton","type":"address"}],"name":"ProxyCreation","type":"event"},{"inputs":[{"internalType":"bytes","name":"RegistryData","type":"bytes"},{"internalType":"address","name":"to","type":"address"},{"internalType":"bytes","name":"data","type":"bytes"}],"name":"createProxyWithTxHash","outputs":[{"internalType":"contract FusionProxy","name":"proxy","type":"address"}],"stateMutability":"nonpayable","type":"function"},{"inputs":[],"name":"proxyCreationCode","outputs":[{"internalType":"bytes","name":"","type":"bytes"}],"stateMutability":"pure","type":"function"}]}